:020000041000EA
:1000000098C8FF1FC1010010AD0D0010690D001050
:100010008D0D001095090010390F00100000000030
:10002000000000000000000000000000690E001049
:10003000D90C001000000000490E0010850E0010C1
:10004000590F00108B0D00105F0D0010610D001096
:10005000650D0010630D0010DB0E0010650E001022
:10006000DD0E0010670E0010B7090010B90900106E
:10007000BB090010BD090010BF090010C109001024
:10008000C3090010C5090010B5090010890D001042
:1000900075050010F10500100D0600107D0600101A
:1000A0007F060010810600108306001085060010F0
:1000B0008706001089060010E5050010E70500100E
:1000C000E9050010EB050010ED050010EF0500102C
:1000D0008B0600108D0600108F060010DF0D00103B
:1000E000390E00103D0E0010410E0010450E00109C
:1000F000370E00103B0E00103F0E0010430E001094
:100100005D0D0010D70C0010D50E0010D70E00109A
:10011000D90E0010D50C001000F002F800F041F8E4
:100120000AA090E8000C82448344AAF10107DA4552
:1001300001D100F036F8AFF2090EBAE80F0013F063
:10014000010F18BFFB1A43F001031847F40F00001A
:1001500014100000103A24BF78C878C1FAD85207AA
:1001600024BF30C830C144BF04680C607047000031
:100170000023002400250026103A28BF78C1FBD8B0
:10018000520728BF30C148BF0B607047642900F098
:10019000FD80002070471FB500F0CCFF1FBD10B5DB
:1001A00010BD00F0B5F91146FFF7F5FF00F0F8FEBD
:1001B00000F0D3F903B4FFF7F2FF03BC00F0CDFE6B
:1001C0000D480E490860DFF838D00E488047DFF848
:1001D00030D00D480047FEE7FEE7FEE7FEE7FEE70A
:1001E000FEE7FEE7FEE7FEE7FEE7000007480849F6
:1001F000084A094B704700000000001008ED00E0BD
:1002000098C8FF1FA50E00101901001098C0FF1F0D
:1002100098C8FF1F98C4FF1F98C4FF1F53EA020C21
:1002200000F069802DE9F04B4FF00006002B1FBF56
:10023000B3FA83F503FA05F424FA05F65E4012BF1B
:100240001643B2FA82F502FA05F4C5F120051EBF85
:1002500022FA05FC44EA0C04203556EA044C4FEA25
:10026000144418BF641C4FF000084FF0000990427E
:1002700071EB030C39D3002919BFB1FA81F701FAE8
:1002800007F6B0FA80F700FA07F6C7F120071EBF9D
:1002900020FA07FC46EA0C062037B6FBF4FCA7EB75
:1002A0000507103F07F01F0BCBF120060CFA0BFBE4
:1002B0002CFA06F644BFB3460026202FA4BF5E46A4
:1002C0004FF0000B5BEA060C08BF4FF0010B19EB77
:1002D0000B09ABFB027C48EB0608C01B06FB02CCFB
:1002E0000BFB03CC71EB0C01C1E70B460246414608
:1002F0004846BDE8F08B13B54FF000004FF0000109
:10030000AFF30080BDE81C40704700000FB4044903
:1003100010B503AA029800F0D1F810BC5DF814FBE8
:100320002CC0FF1F2DE9F0410E460446002020623C
:100330002046E168884730B3252805D0D4E901215B
:100340009047206A401CF2E7E16820460027884772
:10035000050018D0A5F14100192802D820354FF426
:1003600000673246294620462760FFF70FFF40B15D
:10037000012804D0F61D26F007060836D8E7361DFA
:10038000D6E72846DAE7206ABDE8F0812DE9F0419A
:100390000646002410687529314616A510D0AFF323
:1003A0000080002802DA404213A507E031688A077E
:1003B00001D512A502E0490704D511A5012401E0E9
:1003C000AFF3008000210A2206F1240709E0B0FB08
:1003D000F2FCB0FBF2F302FB1C00303078541846FC
:1003E000491C0028F3D123462A463046BDE8F04197
:1003F00000F00BB8000000002D0000002B000000F2
:10040000200000007047704770472DE9F0470D4607
:1004100099469246044600F124080168880604D5EE
:10042000E06921F01001216000E00120A84201DD17
:10043000471B00E00027A1697A1902EB0900081A9E
:10044000A0612078C00602D42046AFF300800026C9
:1004500008E0D4E901211AF806009047206A401C00
:10046000761C20624E45F4DB2078C0060AD5204673
:10047000AFF3008006E0D4E9012130209047206AE4
:10048000401C2062381EA7F10107F4DC07E0D4E924
:10049000012118F805009047206A401C2062281EA0
:1004A000A5F10105F3DC2046AFF3008020780006BB
:1004B00002D50220BDE8F0870120FBE7074B70B5AD
:1004C0000D467B4400F011F80446284600F047FD35
:1004D00010B14FF0FF3070BD204670BDA30A000080
:1004E00001694A1C02610878704700B58FB0CDE9F8
:1004F00001310021059105497944CDE903101146E8
:100500006846FFF70FFF0FB000BD0000E5FFFFFFDB
:10051000754600F02BF8AE4605006946534620F0BC
:100520000700854618B020B5FFF760FEBDE8204003
:100530004FF000064FF000074FF000084FF0000B9F
:1005400021F00701AC46ACE8C009ACE8C009ACE852
:10055000C009ACE8C0098D46704710B50446AFF33A
:1005600000802046BDE81040FFF724BE00487047D9
:1005700038C0FF1F10B50D4800680D4908600846D7
:1005800001680CA0FFF7C2FE0948006840F6496107
:1005900000FB01F4E01704EB105001130AA0FFF771
:1005A000B5FE01200E49486010BD00002831004012
:1005B00000C0FF1F41444320434830206461746100
:1005C0002069732025640A004144432043483020B9
:1005D000566F6C746167652025646D760A000000B3
:1005E0000030004070477047704770477047704751
:1005F00003480068034908600220034948607047C7
:100600002C31004000C0FF1F0030004010B50D48E5
:1006100000680D490860084601680CA0FFF776FEE7
:100620000948006840F6496100FB01F4E01704EB5B
:10063000105001130AA0FFF769FE04200E4948601C
:1006400010BD00003031004000C0FF1F4144432076
:1006500043483220646174612069732025640A0074
:100660004144432043483220566F6C7461676520D3
:1006700025646D760A000000003000407047704726
:1006800070477047704770477047704770477047B2
:100690002DE9F04104460D4616461F46204600F05F
:1006A00063F83B4632462946204600F079F88046FA
:1006B000C8231A462946204600F01CF9D4F8041134
:1006C00004F1B80040F82510D4F8F810403840F88C
:1006D000251020690121A94008432061304600F01F
:1006E0007FFB4046BDE8F081014600201E2929D04D
:1006F0000FDC03291ED005DCB1B1012916D0022977
:100700002ED115E0042917D01C2917D01D2927D177
:1007100016E0A1F11F020A2A22D2DFE802F0152119
:1007200021212117191B1D1F83201BE0932019E095
:10073000842017E0942015E0852013E0952011E037
:1007400096200FE097200DE098200BE08C2009E028
:100750008D2007E08E2005E09B2003E08F2001E044
:10076000084600BF00BF70470C49096841F001010D
:100770004FF08042C2F8341200BF0021D0F8182197
:1007800042F00602C0F8182100BF00E0491C40F208
:10079000E2429142FAD300BF7047000034020040A9
:1007A0002DE9F05F04460D4690461E464FF00009C5
:1007B0000027BA46BB464046FFF796FF0746380972
:1007C000082802D009280AD104E007F00F0A4FF0E8
:1007D000000B07E04FF0000A07F00F0B02E04FF0AC
:1007E000010900BF00BFB9F1000F3ED104F138008C
:1007F00050F8250020F4F01040EA4A4104F1380096
:1008000040F8251050F8250020F0F07040EA4B51D8
:1008100004F1380040F82510B6F5805F0ADBF2B22B
:100820002946204600F045F8A06A0121A940084366
:10083000A06210E0A06A0121A9408843A06204F1EF
:10084000380050F8250020F0F05040EA466104F1ED
:10085000380040F8251004F1380050F8250040F029
:10086000005104F1380040F825104846BDE8F09FDB
:1008700030B508290CDAC36A8D000F24AC40A343BD
:10088000002404EB810402FA04F42343C3620FE062
:10089000036BA1F10804A5000F24AC40A343A1F110
:1008A0000804002505EB840402FA04F423430363DF
:1008B00030BD30B508290CDAC36A8D000F24AC4076
:1008C000A343002404EB810402FA04F42343C3622B
:1008D0000FE0036BA1F10804A5000F24AC40A34373
:1008E000A1F10804002505EB840402FA04F4234373
:1008F000036330BD2DE9F05F04460D4691469A46EC
:10090000012000F02DF983462148BBFBF0F000FBED
:1009100009F842F21070B8FBF0F7B8FBF0F100FBF9
:10092000118000B17F1C07B901271948BBFBF0F00B
:1009300000FB0AF842F21070B8FBF0F6B8FBF0F1D9
:1009400000FB118000B1761C06B90126B7F5807F47
:1009500001D94FF48077202E00D9202604F13800E9
:1009600050F8250020F0FF00791E084304F13801FB
:1009700041F82500084650F8250020F4F851701E73
:1009800041EA002104F1380040F82510BDE8F09F4D
:10099000A086010010B502A0FFF7B8FC10BD000052
:1009A0004275734661756C745F48616E646C657204
:1009B0000A000000704770477047704770477047E3
:1009C00070477047704700002DE9F74F82B00D4621
:1009D0001646002000905248864202D9012000901D
:1009E00095E05048854201D801241FE04E488542D9
:1009F00001D802241AE04D48854201D8032415E0AD
:100A00004B48854201D8042410E04A48854201D869
:100A100005240BE04848854201D8062406E04748F3
:100A2000854201D8072401E0012000900098C8B950
:100A30004348864202D94FF0060913E041488642F6
:100A400002D94FF008090DE03F48864202D94FF025
:100A50000C0907E03D48864202D34FF0100901E03F
:100A6000012000900098002851D106FB09FA0004EB
:100A700040EA1448270400233946A1FB0A0C08FB6E
:100A80000AC207FB032807462A4638464146FFF7B5
:100A9000C5FB0746BA46A9F10100C00640EA04605A
:100AA00040EA0A002A4908608806D0F80C02C0F320
:100AB000412B0AEB4A004001CBF10B01B0FBF1F0F6
:100AC0006421B0FBF1F0000C000140EA4B210298D8
:100AD00041EAC000401C1E49091F08601D480190E2
:100AE00009E01B4810380068C0F3C00000B105E001
:100AF0000198401E019001980028F2D100BF1448CF
:100B000010380068C0F3C00008B901200090302000
:100B1000114908601148C660009805B0BDE8F08F23
:100B200000E1F50500127A000024F40000366E01A1
:100B30000048E801005A6202006CDC02007E5603A5
:100B4000C068780480F0FA0260343C0240787D018D
:100B500010020040A08601008C00004008C0FF1F6A
:100B6000F0B501460846B0F5005F0FD1224F3F684F
:100B7000FCB24FF08047D7F82872C7F3022501274F
:100B8000AF4004F1010C07FB0CF716E0B0F5804F05
:100B900005D1194F3F1D3F68FFB27F1C0DE0B0F536
:100BA000004F05D1144F08373F68FFB27F1C04E0A7
:100BB000114F3F1F3F68FFB27F1C3E46B1F5804F8B
:100BC00005D10D48001D0068C0F301620DE0B1F5CC
:100BD000004F05D1084808300068C0F3016204E006
:100BE0000548001F0068C0F30162044850F8220065
:100BF000B0FBF6F31846F0BD2802004008C0FF1F06
:100C000070B5044600252D482D49086003202C4965
:100C10001939087000202A4908602A48006840F005
:100C200001004FF08041C1F8040242F2107607E063
:100C30002448001F006800F0010000B102E0761EA9
:100C4000002EF5D100BF1F48001F006800F0010012
:100C500028B11C48001F0068C0F3400008B90125F6
:100C600008E01948844205D0224601460020FFF7DB
:100C7000ABFE054605BB1448844204D1002011494F
:100C80002031086004E04FF040700E4920310860C8
:100C900000200C49283108604FF080708101C1F8B4
:100CA000300209480949086048600846046108485C
:100CB0000068816B20468847284670BD51E5CC1AF4
:100CC000601B0040040200400048E80108C0FF1F0C
:100CD00004C0FF1F7047704710B502A0FFF716FB56
:100CE00010BD000044656275674D6F6E5F48616EB0
:100CF000646C65720A0000000A4800690A4988426B
:100D000003D80420094908600BE006480069084937
:100D1000884203D805200549086002E006200349FF
:100D20000860704708C0FF1F40787D0124C0FF1F86
:100D30000048E80100B502464FF47A7102FB01F069
:100D400000F002F800BD000003490968484300E0D4
:100D5000401E0028FCD1704724C0FF1F7047704719
:100D6000704770477047000010B502A0FFF7CEFA39
:100D700010BD0000486172644661756C745F486123
:100D80006E646C65720A00007047704710B502A06F
:100D9000FFF7BCFA10BD00004D656D4D616E6167D7
:100DA000655F48616E646C65720A000010B502A050
:100DB000FFF7ACFA10BD00004E4D495F48616E640C
:100DC0006C65720A0000000000F01F0201219140D2
:100DD0004209920002F1E022C2F800117047704708
:100DE000282827DC042801DD24280FDB810001F1FD
:100DF0008041D1F8001340F20312914340F20122E6
:100E00001143820002F18042C2F800131C2811DB5A
:100E10001F280FDC810001F18041D1F8001340F25E
:100E20000312914340F201221143820002F18042F9
:100E3000C2F800137047704770477047704770479B
:100E4000704770477047000010B502A0FFF75EFAC8
:100E500010BD000050656E6453565F48616E646C4F
:100E600065720A007047704710B502A0FFF74EFA8E
:100E700010BD00005356435F48616E646C65720A92
:100E80000000000010B502A0FFF740FA10BD0000FE
:100E90005379735469636B5F48616E646C65720A61
:100EA000000000000949096841F47001074A116017
:100EB00007490968C843D106D1F88410084000F0FA
:100EC0000F000349091F08607047000088ED00E02B
:100ED000900000407047704770477047704770B58A
:100EE00004460D462946204600F004F840F603402B
:100EF000606070BD70B504460D460D48844207D150
:100F00000C48006840F040002105C1F8340207E0B9
:100F10000848006840F080004FF08041C1F834027A
:100F20004020FFF71DFEB0FBF5F6A66170BD000086
:100F3000001400403402004010B502A0FFF7E6F9AB
:100F400010BD000055736167654661756C745F483C
:100F5000616E646C65720A00704700BFFEE701466F
:100F60004FF0FF30704700000A280AD10D220B4BCA
:100F70001A6000BF094A4032126802F00402002AD7
:100F8000F8D0C2B2054B1A6000BF044A4032126862
:100F900002F00402002AF8D070470000001400405C
:100FA0005348FFF72DFEFFF7A7FE5248006840F2B6
:100FB0000311884340F2012108438907C1F828033F
:100FC0004C48001D006840F20311884340F20121A3
:100FD00008438907C1F82C034FF416414648FFF730
:100FE0007EFF46A0FFF792F900231A4619464748AC
:100FF000FFF74EFB0023012211464448FFF748FB50
:101000000023022211464148FFF742FB4FF4C87308
:101010001A4600213D48FFF76DFC4FF4C8731A468D
:1010200001213A48FFF766FC4FF4C8731A460221C3
:101030003648FFF75FFC3548806A40F001003349CD
:1010400088620846806A40F004008862012200211C
:101050002E48FFF70DFC012202212C48FFF708FC67
:101060001420FFF7B1FE1520FFF7AEFE1620FFF7A4
:10107000ABFE2648D0F8480240F001002449086041
:101080002248D0F84C0240F001012148001D0160C7
:101090001E48D0F8480240F2FC71884340F480605A
:1010A0001B4908601948D0F84C0240F2FC71884393
:1010B00040F491611548C0F84C1202201349C861F0
:1010C0006420FFF737FE1248C0380268002111A0E3
:1010D000FFF71CF90D48D0F88C2101210DA0FFF776
:1010E00015F903E01148006811490860FAE70000AB
:1010F00000E1F5052803004000140040456E7465CA
:10110000722074686520746573740A0000300040B2
:10111000483200405050555B25645D2064656C6129
:10112000792069732025640A0000000028310040FE
:1011300000C0FF1F4FF04070E1EE100A7047000042
:101140006011001000C0FF1F3800000054010010A3
:101150009811001038C0FF1F6008000070010010D7
:1011600000000000001000000048E8010048E8010D
:101170000048E801000000000048E801000000000D
:10118000000000000000000000000000000000005F
:08119000000000000000000057
:0400000510000119CD
:00000001FF
