:020000041000EA
:1000000090D5FF1F01020010D910001095100010AC
:10001000B9100010E90C0010F911001000000000E8
:100020000000000000000000000000002911001086
:100030002D100010000000000911001045110010E3
:1000400019120010B71000108B1000108D10001046
:10005000911000108F1000109B110010251100103E
:100060009D110010271100100B0D00100D0D001038
:100070000F0D0010110D0010130D0010150D0010C4
:10008000170D0010190D0010090D0010B51000100B
:10009000C10C0010CF0C0010D10C0010D30C0010BC
:1000A000D50C0010D70C0010D90C0010DB0C001080
:1000B000DD0C0010DF0C0010C30C0010C50C00108C
:1000C000C70C0010C90C0010CB0C0010CD0C001098
:1000D000E10C0010E30C0010E50C0010F51000100E
:1000E000F9100010FD100010011100100511001092
:1000F000F7100010FB100010FF100010031100108B
:10010000891000102B10001095110010971100108D
:10011000991100102910001000F002F800F046F8C4
:100120000AA090E8000C82448344AAF10107DA4552
:1001300001D100F03BF8AFF2090EBAE80F0013F05E
:10014000010F18BFFB1A43F001031847D813000032
:10015000F8130000103A24BF78C878C1FAD85207C3
:1001600024BF30C830C144BF04680C607047000031
:100170000023002400250026103A28BF78C1FBD8B0
:10018000520728BF30C148BF0B607047642900F098
:100190001D81782900F05681002070471FB501F0BD
:1001A000A7F900F090F91FBD10B510BD00F01AFAC4
:1001B0001146FFF7F3FF01F053F800F038FA03B4EB
:1001C000FFF7F2FF03BC01F028F800000B49D1F85B
:1001D00000C04A685CF8043B1068184442F8040BFD
:1001E0008C4528BFA1F1DC0C8A4228BFA1F1DC02BA
:1001F000C1F800C04A6020F00040704728CDFF1FC2
:100200000D480E490860DFF838D00E488047DFF807
:1002100030D00D480047FEE7FEE7FEE7FEE7FEE7C9
:10022000FEE7FEE7FEE7FEE7FEE7000007480849B5
:10023000084A094B704700000000001008ED00E07C
:1002400090D5FF1F651100101901001090CDFF1F00
:1002500090D5FF1F90D1FF1F90D1FF1F53EA020CD2
:1002600000F069802DE9F04B4FF00006002B1FBF16
:10027000B3FA83F503FA05F424FA05F65E4012BFDB
:100280001643B2FA82F502FA05F4C5F120051EBF45
:1002900022FA05FC44EA0C04203556EA044C4FEAE5
:1002A000144418BF641C4FF000084FF0000990423E
:1002B00071EB030C39D3002919BFB1FA81F701FAA8
:1002C00007F6B0FA80F700FA07F6C7F120071EBF5D
:1002D00020FA07FC46EA0C062037B6FBF4FCA7EB35
:1002E0000507103F07F01F0BCBF120060CFA0BFBA4
:1002F0002CFA06F644BFB3460026202FA4BF5E4664
:100300004FF0000B5BEA060C08BF4FF0010B19EB36
:100310000B09ABFB027C48EB0608C01B06FB02CCBA
:100320000BFB03CC71EB0C01C1E70B4602464146C7
:100330004846BDE8F08B13B54FF000004FF00001C8
:10034000AFF30080BDE81C40704700000FB40449C3
:1003500010B503AA029800F01BF910BC5DF814FB5D
:100360002CC0FF1F2DE9F0410E46044600202062FC
:100370002046E168884730B3252805D0D4E901211B
:100380009047206A401CF2E7E16820460027884732
:10039000050018D0A5F14100192802D820354FF4E6
:1003A00000673246294620462760FFF7EFFE40B13E
:1003B000012804D0F61D26F007060836D8E7361DBA
:1003C000D6E72846DAE7206ABDE8F0812DE9F0415A
:1003D0000646002410687529314616A510D0AFF3E3
:1003E0000080002802DA404213A507E031688A073E
:1003F00001D512A502E0490704D511A5012401E0A9
:10040000AFF3008000210A2206F1240709E0B0FBC7
:10041000F2FCB0FBF2F302FB1C00303078541846BB
:10042000491C0028F3D123462A463046BDE8F04156
:1004300000F055B8000000002D0000002B00000067
:100440002000000070B504460D4621461068AFF349
:1004500000802188090502D50F4A7A4402E00E4A3D
:100460007A440E32002104F1240305E000F00F0667
:100470000009965D5E54491C0028F7D120780023BE
:10048000000704D5702D02D009B102231132204695
:10049000BDE8704000F023B89C1000000B4910B577
:1004A000A1F17C020A4CC2E93712372106E000EBC9
:1004B000104342F82130074B00FB03400B1EA1F113
:1004C0000101F4DC10BD0120E8E70000C8CCFF1FEB
:1004D000E119D666CD0D01007047704770472DE9D0
:1004E000F0470D4699469246044600F124080168FB
:1004F000880604D5E06921F01001216000E00120A8
:10050000A84201DD471B00E00027A1697A1902EB30
:100510000900081AA0612078C00602D42046AFF373
:100520000080002608E0D4E901211AF8060090476F
:10053000206A401C761C20624E45F4DB2078C00601
:100540000AD52046AFF3008006E0D4E9012130202F
:100550009047206A401C2062381EA7F10107F4DC96
:1005600007E0D4E9012118F805009047206A401CF3
:100570002062281EA5F10105F3DC2046AFF30080C0
:100580002078000602D50220BDE8F0870120FBE7B5
:10059000074B70B50D467B4400F011F80446284621
:1005A00000F03DFE10B14FF0FF3070BD204670BD31
:1005B0008F0C000001694A1C02610878704700B581
:1005C0008FB0CDE901310021059105497944CDE98C
:1005D000031011466846FFF7C5FE0FB000BD0000CE
:1005E000E5FFFFFF754600F02BF8AE4605006946B3
:1005F000534620F00700854618B020B5FFF716FED9
:10060000BDE820404FF000064FF000074FF0000813
:100610004FF0000B21F00701AC46ACE8C009ACE894
:10062000C009ACE8C009ACE8C0098D46704710B5F8
:100630000446AFF300802046BDE81040FFF7BFBD81
:100640000048704730CDFF1F03468AB210B582EADA
:10065000114299B200201C0C4A40944201D04FF440
:10066000807010BDF0B505464068002201EB0034F3
:10067000104613462C6103E0EE6846F82030401C1B
:10068000AE688642F8D801F1080600271CE0216810
:10069000D4F804C0481C02D1BCF1FF3F06D00127AA
:1006A0006046FFF7D1FF020003D010E067B92C616C
:1006B0000AE0A9681FFA8CF081420AD9E96851F86A
:1006C00020300BB941F82040083CB442DFD210463C
:1006D000F0BD0422FBE72DE9F04100250E46074658
:1006E0002C46DFF8488409E0D8F8001007EB043006
:1006F0004969884708B1022502E0641CB442F3D37B
:100700002846BDE8F081F0B50025944600F10807C1
:10071000441809E0216866683046FFF795FF18B96C
:10072000B0B2604500D26D1C083CBC42F2D22846F3
:10073000F0BD01684068FE4A914201D0904201D16B
:10074000012070470220704770B50546F748F84908
:10075000002400680A46C368284698474FF400639F
:1007600020B92846FFF7E5FF012800D01C462046A7
:1007700070BD8AB282EA114281B282EA01007047FA
:1007800010B503C800EB0133FFF7D3FF044618464A
:10079000FFF7CFFF012C04D0012801D04FF6FF70E6
:1007A00010BD002010BD2DE9F05F06468846D6E951
:1007B0000070B16800251C4693464FEA003C414555
:1007C0004DD93046FFF7DCFFA0F57F41FF3902D05D
:1007D000012C03D005E04FF4806541E0012816D0DC
:1007E000012007F1080100FB0C11401C083F34698F
:1007F00000FB0C798C4230D34C452ED804F1080014
:1008000030616068271D2168491C02D003E0002088
:10081000E7E7401C05D040254C4521D145F4007543
:100820001EE059464046FFF7A4FF48EA004ABF4889
:10083000524659460068C3682046984708B10125CA
:10084000EAE738682168504505D1594503D1F16878
:1008500041F82840E0E70825DEE7202500E00425F0
:100860002846BDE8F09F10B54FF080410246D1F810
:10087000B0100020AF4B01F0060103EB813411688A
:100880001B14B1F1805F01D3A14205D3AA4CA14250
:1008900002D0AA4CA14207D1516829B192681AB17D
:1008A0000903B2EB111F00D9184610BD2DE9F04124
:1008B00004469046D4E9005007030E464FF6FF7CED
:1008C0002046FFF7D0FF002809D1A068B0422DD9FB
:1008D0002046FFF755FF604502D14FF4806010E7D6
:1008E00005F1080100FB0712401C083D00FB075101
:1008F000E06850F82600904213D3884211D804686B
:10090000456821462846FFF79FFE10B14FF48070DE
:10091000F7E6A9B2B14202D1C8F80040F1E6802062
:10092000EFE608B12020ECE61020EAE60420E8E635
:100930002DE9F84304464068216906032068002237
:100940008719BB19994204D100F108018046216141
:1009500006E0B94206D107F10801B8460746216111
:10096000002517E01046BDE8F8836A462946204670
:10097000FFF79CFF28B110280BD050F080450CD019
:100980001EE0012329462046009AFFF70CFF0028AD
:10099000F3D16D1CA068A842E7D84046FFF7D4FE0B
:1009A00005000DD138466168FFF795FE050007D1B7
:1009B0005E4831460068C2693846904700B102255A
:1009C0002846D0E72DE9F04105464068574E0024FF
:1009D0000703306888463946C2694046904760B18F
:1009E00040466968FFF777FE040006D13068394653
:1009F000C2694046904700B10224204681E62DE9B5
:100A0000F0470446406805032068814600EB050A6C
:100A10002046FFF728FF03006ED100264846FFF767
:100A200088FE0746012802D0761C032EF6D3002646
:100A30005046FFF77EFE012802D0761C032EF7D326
:100A40004FF00046022F02D0012F11D054E00128B0
:100A500002D0022850D14EE049462046FFF7B2FFAF
:100A6000030049D151460EE02046FFF761FF2CE01C
:100A700001280ED002283FD151462046FFF7A2FFA1
:100A8000030039D149462046FFF7ECFD0300EBD0C7
:100A900032E029464846A268FFF735FE80462946DF
:100AA0005046A268FFF72FFE204F80450FD25046D8
:100AB0006168FFF710FE03001ED138682946C2693D
:100AC0005046904780B9494611E0034614E012D9D8
:100AD00048466168FFF7FFFD03000DD138682946DD
:100AE000C2694846904708B1022305E051462046B6
:100AF000FFF7B8FDE9E733461846BDE8F0872DE972
:100B0000F0470446406800260703206835468046C3
:100B100000EB070A2046FFF7A6FE0028EDD1DFF81C
:100B20000C903946D9F80000C26909E004C0FF1FE3
:100B300051E5CC1A00800010002000110030001197
:100B40004046904768B140466168FFF7C4FD002801
:100B5000D3D1D9F800003946C26940469047A8B9B8
:100B600000E00226D9F800003946C2695046904795
:100B700070B150466168FFF7AEFD0028BDD1D9F8CD
:100B800000003946C2695046904718B10220B4E7C8
:100B900046F0010636B1012E03D0022E02D0032EFC
:100BA00000D101250020014603E0E26842F8201050
:100BB000401CA2688242F8D808F1080005FB070033
:100BC000206105FB0780BDE8F047BDE52DE9F84F42
:100BD0000546D5E900404FEA00382846FFF7D0FD2A
:100BE000012803D030B14FF480644CE0274604EB79
:100BF000080A02E004EB0807A246DFF8C09041466D
:100C0000D9F80000C2693846904770B13846696823
:100C1000FFF761FD040036D1D9F800004146C269F2
:100C20003846904708B102242DE007F1080000265D
:100C3000286112E06A4631462846FFF737FE040075
:100C400002D0102C08D01EE0012331462846009A1D
:100C5000FFF7A9FD040016D1761CA868B042E9D8B8
:100C60003846FFF771FD04000DD150466968FFF763
:100C700032FD040007D1D9F800004146C269504650
:100C800090470028CFD12046BDE8F88F70B51546B3
:100C90000E460446FFF7E7FD00280ED100232A4642
:100CA00031462046FFF77FFD810506D52046FFF738
:100CB0008DFF002801D040F0804070BD04C0FF1FB0
:100CC000704770477047704770477047704770476C
:100CD000704770477047704770477047704770475C
:100CE000704770477047000010B502A0FFF72EFB59
:100CF00010BD00004275734661756C745F48616E8B
:100D0000646C65720A000000704770477047704756
:100D10007047704770477047704700002DE9F74FE4
:100D200082B00D461646002000905248864202D9F5
:100D30000120009095E05048854201D801241FE031
:100D40004E48854201D802241AE04D48854201D818
:100D5000032415E04B48854201D8042410E04A489A
:100D6000854201D805240BE04848854201D8062475
:100D700006E04748854201D8072401E001200090A1
:100D80000098C8B94348864202D94FF0060913E0DB
:100D90004148864202D94FF008090DE03F4886429B
:100DA00002D94FF00C0907E03D48864202D34FF0CC
:100DB000100901E0012000900098002851D106FBA5
:100DC00009FA000440EA1448270400233946A1FB2D
:100DD0000A0C08FB0AC207FB032807462A463846C6
:100DE0004146FFF73BFA0746BA46A9F10100C006A3
:100DF00040EA046040EA0A002A4908608806D0F800
:100E00000C02C0F3412B0AEB4A004001CBF10B016D
:100E1000B0FBF1F06421B0FBF1F0000C000140EAFE
:100E20004B21029841EAC000401C1E49091F08607E
:100E30001D48019009E01B4810380068C0F3C0004D
:100E400000B105E00198401E019001980028F2D100
:100E500000BF144810380068C0F3C00008B9012072
:100E600000903020114908601148C660009805B014
:100E7000BDE8F08F00E1F50500127A000024F400CF
:100E800000366E010048E801005A6202006CDC0284
:100E9000007E5603C068780480F0FA0260343C0299
:100EA00040787D0110020040A08601008C000040C7
:100EB00008C0FF1FF0B501460846B0F5005F0FD12E
:100EC000224F3F68FCB24FF08047D7F82872C7F333
:100ED00002250127AF4004F1010C07FB0CF716E0D7
:100EE000B0F5804F05D1194F3F1D3F68FFB27F1C01
:100EF0000DE0B0F5004F05D1144F08373F68FFB241
:100F00007F1C04E0114F3F1F3F68FFB27F1C3E462D
:100F1000B1F5804F05D10D48001D0068C0F3016296
:100F20000DE0B1F5004F05D1084808300068C0F366
:100F3000016204E00548001F0068C0F30162044834
:100F400050F82200B0FBF6F31846F0BD280200402E
:100F500008C0FF1F70B5044600252D482D490860C4
:100F600003202C491939087000202A4908602A48B2
:100F7000006840F001004FF08041C1F8040242F2E5
:100F8000107607E02448001F006800F0010000B15F
:100F900002E0761E002EF5D100BF1F48001F00683A
:100FA00000F0010028B11C48001F0068C0F3400099
:100FB00008B9012508E01948844205D022460146B7
:100FC0000020FFF7ABFE054605BB1448844204D160
:100FD000002011492031086004E04FF040700E49B4
:100FE0002031086000200C49283108604FF08070E3
:100FF0008101C1F830020948094908604860084683
:10100000046108480068816B20468847284670BD07
:1010100051E5CC1A601B0040040200400048E80182
:1010200008C0FF1F04C0FF1F7047704710B502A023
:10103000FFF78CF910BD000044656275674D6F6E57
:101040005F48616E646C65720A0000000A480069BE
:101050000A49884203D80420094908600BE0064881
:1010600000690849884203D805200549086002E064
:10107000062003490860704708C0FF1F40787D01C3
:1010800024C0FF1F0048E801704770477047704751
:101090007047000010B502A0FFF758F910BD00001E
:1010A000486172644661756C745F48616E646C651A
:1010B000720A00007047704710B502A0FFF746F9AA
:1010C00010BD00004D656D4D616E6167655F4861E3
:1010D0006E646C65720A000010B502A0FFF736F965
:1010E00010BD00004E4D495F48616E646C65720A28
:1010F00000000000704770477047704770477047A6
:10110000704770477047000010B502A0FFF71EF946
:1011100010BD000050656E6453565F48616E646C8C
:1011200065720A007047704710B502A0FFF70EF90C
:1011300010BD00005356435F48616E646C65720ACF
:101140000000000010B502A0FFF700F910BD00007C
:101150005379735469636B5F48616E646C65720A9E
:10116000000000000949096841F47001074A116054
:1011700007490968C843D106D1F88410084000F037
:101180000F000349091F08607047000088ED00E068
:10119000900000407047704770477047704770B5C7
:1011A00004460D462946204600F004F840F6034068
:1011B000606070BD70B504460D460D48844207D18D
:1011C0000C48006840F040002105C1F8340207E0F7
:1011D0000848006840F080004FF08041C1F83402B8
:1011E0004020FFF767FEB0FBF5F6A66170BD00007A
:1011F000001400403402004010B502A0FFF7A6F82A
:1012000010BD000055736167654661756C745F4879
:10121000616E646C65720A00704700BFFEE70146AC
:101220004FF0FF30704700000A280AD10D220B4B07
:101230001A6000BF094A4032126802F00402002A14
:10124000F8D0C2B2054B1A6000BF044A403212689F
:1012500002F00402002AF8D0704700000014004099
:1012600010B55F48FFF776FEFFF7F0FE5D480068B7
:1012700040F20311884340F2012108438907C1F875
:1012800028035848001D006840F20311884340F2CB
:10129000012108438907C1F82C034FF41641524835
:1012A000FFF77DFF51A0FFF751F8544854490860FB
:1012B00001204860000288605248C8600020086130
:1012C0005149096808688047002405E0FEF77EFF61
:1012D0004E4941F82400641CFF2CF7D94848FFF719
:1012E0008EFB4B4908600846006800282AD0084653
:1012F0000068B0F1004F10D14148FFF700FC4449AD
:1013000008600846006820B142A0FFF71FF80120DE
:1013100010BD4CA0FFF71AF814E03D48016857A033
:10132000FFF714F83648FFF7EAFB3949086008462A
:10133000006820B137A0FFF709F80120E8E741A0D5
:10134000FFF704F8002411E0304850F8242021462B
:101350002B48FFF79BFC2E4908600846006820B127
:1013600049A0FEF7F3FF0120D2E7641CFF2CEBD964
:10137000002411E04B4800EB840221462048FFF78F
:1013800095FA234908600846006820B146A0FEF798
:10139000DDFF0120BCE7641CFF2CEBD9002416E024
:1013A000404850F82400194951F8241088420DD0C3
:1013B00043A0FEF7CBFF154850F82430394850F8C9
:1013C0002420214641A0FEF7C1FF02E0641CFF2C4F
:1013D000E6D900BF42A0FEF7B9FF00BFFEE700005C
:1013E00000E1F5052803004000140040456E7465D7
:1013F000722074686520746573740A0000D0001050
:1014000038C8FF1F4CC8FF1F04C0FF1F38C0FF1F94
:1014100000C0FF1F45726173657320454550524FF0
:101420004D20706167657320616E642053656C6543
:10143000637420612070616765204641494C210A30
:101440000000000045726173657320454550524F9E
:101450004D20706167657320616E642053656C6513
:101460006374206120706167652061732056414C70
:10147000494420535543434553530A0073746174E0
:1014800075732025780A00005772697465206565B8
:1014900070726F6D2064617461204641494C210A6D
:1014A0000000000038C4FF1F52656164206565704C
:1014B000726F6D2064617461204641494C210A00BD
:1014C00054657374204641494C210A00446174619B
:1014D0005B25645D203A202564202D2025640A00C8
:1014E000546573742053554343455353210A0000F8
:1014F0004FF04070E1EE100A70473031323334352E
:10150000363738394142434445464030580030313F
:10151000323334353637383961626364656640305A
:10152000780000004415001000C0FF1F38000000C4
:10153000540100107C15001038C0FF1F5815000022
:101540007001001000000000001000000048E801D9
:101550000048E8010048E801000000000048E801F8
:10156000000000000000000000000000000000007B
:0C1570000000000000000000000000006F
:0400000510000119CD
:00000001FF
